:100200000C9432020C945A020C945A020C945A0226
:100210000C945A020C945A020C9494250C945A0291
:100220000C945A020C945A020C945A020C945A02DE
:100230000C945A020C945A020C9428260C94D92639
:100240000C945A020C945A020C945A020C945A02BE
:100250000C9425250C945A020C945A020C945A02C0
:100260000C944A250C945A020C945A020C945A028B
:100270000C945A020C94DB240C945A020C945A02EB
:100280000C945A020C945A020C946F250C9400257D
:100290000C9477240C94DF250C94B9250C945A0205
:1002A00000407A10F35A00A0724E18090010A5D42D
:1002B000E80000E87648170000E40B54020000CA8A
:1002C0009A3B000000E1F5050000809698000000D0
:1002D00040420F000000A08601000000102700002F
:1002E0000000E803000000006400000000000A00B5
:1002F000000000000100000000002C76D888DC67B8
:100300004F0823DFC1DFAE59E1B1B796E5E3E4530F
:10031000C63AE651997696E8E6C28426EB898C9B2C
:1003200062ED407C6FFCEFBC9C9F40F2BAA56FA5CC
:10033000F490055A2AF75C936B6CF9676DC11BFC4E
:10034000E0E40D47FEF520E6B500D0ED902E030069
:10035000943577050080841E080000204E0A0000B6
:1003600000C80C333333330F986E12831141EF8D75
:100370002114893BE65516CFFEE6DB18D1844B38B5
:100380001BF77C1D901DA4BBE424203284725E22E6
:100390008100C9F124ECA1E53D27005EBCE2613F8C
:1003A000DD83C29C7E20A3FD1F41009D23BE46DB52
:1003B00065F88C11AF32CA57E9744D656D6F72796B
:1003C000206572726F722E005061636B65742065D8
:1003D00072726F722E004552524F523A2054696D1C
:1003E000656F75742077616974696E6720666F72D6
:1003F00020636C69656E742E00446973636F6E6E62
:1004000065637465642E004552524F523A20436C26
:1004100061737320726571756972657320636F6EA5
:100420006E6563746564207365727665722E004331
:100430006F6E6E656374656420746F207365727689
:1004400065722076657273696F6E200001234567BF
:1004500089ABCDEFFEDCBA9876543210F0E1D2C30E
:10046000CA27073211241FBECFEFCDBFDFE3DEBFA7
:100470002DE2A0EBB8E201C01D92A83CB207E1F763
:1004800018E2A0E0B8E2E4ECF8E702C005900D92B3
:10049000A03BB107D9F712E0C1E3D2E004C0219735
:1004A000FE010E945536C033D107C9F70E945D296D
:1004B0000C94173B0C9400016F927F928F929F9245
:1004C000AF92BF92CF92DF92EF92FF920F931F9362
:1004D000CF93DF937C013B016A0110E000E0D7017C
:1004E00014968D919C91E601C01BD10B8C179D0732
:1004F00008F4EC01F7018181928121E0A6014C1BF7
:100500005D0B0417150708F420E0DC01ED91FC9168
:10051000048CF58DE02DAE015527D7016C9109951E
:100520008C179D0771F54301800E911E5401C50182
:10053000881999098C179D0770F4F70181819281C0
:10054000DC01ED91FC910284F385E02D0995F50124
:1005500081935F01ECCF0C0F1D1F0C151D0508F4D6
:10056000BECF81E0DF91CF911F910F91FF90EF906F
:10057000DF90CF90BF90AF909F908F907F906F90C3
:10058000089580E0EFCF86ED92E08093E42A909387
:10059000E52A1092842A1092852AE3E9F4E080810A
:1005A000887F8083808183608083089510922A2AC7
:1005B00010922B2A0895CF93DF93EC018B8188232F
:1005C000D1F089819A81DC01ED91FC910688F7894F
:1005D000E02D6881099589819A81DC01ED91FC917A
:1005E000028CF38DE02D099591E0811190E0892F27
:1005F000DF91CF91089589819A81DC01ED91FC9181
:100600000684F785E02D099581E08B83CE010E9459
:10061000DB02982F8111D5CFEACF0895EF92FF9298
:100620000F931F93CF93DF937C01EB018B01040F9A
:10063000151FC017D10759F0D701ED91FC91048027
:10064000F581E02D6881C70109958993F2CFDF918B
:10065000CF911F910F91FF90EF9008950F931F93EB
:10066000CF93DF93EC018B018091C008E881F98181
:100670000480F581E02D86FD13C0612FCE01099520
:10068000182FE881F9810480F581E02D602FCE01DB
:100690000995082FC801DF91CF911F910F910895FF
:1006A000CE010995082FE881F9810480F581E02DBC
:1006B000612FCE010995182FEDCF00006093C4087B
:1006C0008091C30887FFFCCF8091C40808958F9262
:1006D0009F92AF92BF92CF92DF92EF92FF920F93D1
:1006E0001F93CF93DF93FC018085882319F081FF4E
:1006F0000EC07894DF91CF911F910F91FF90EF90F2
:10070000DF90CF90BF90AF909F908F90089580FF23
:10071000F1CF82849384A484B584C12CD12C76013A
:1007200010E09401A501B601C701A0E00E94873640
:1007300099F1217030E040E050E060E070E080E04E
:1007400090E00E948736D9F0D0E0C0E0103370F41A
:10075000C12FC695C695C69580E2C89FE0011124B9
:10076000C05FDB4F812F8770C80FD11DCF01810F74
:10077000911DDC0152968C919881892B888394017C
:10078000A501B601C70101E00E946C3649015A017A
:100790006B017C011F5FC5CF86849784A088B188D8
:1007A000C12CD12C760110E29401A501B601C7013C
:1007B000A0E00E94873609F49DCF217030E040E030
:1007C00050E060E070E080E090E00E948736D9F071
:1007D000D0E0C0E0103370F4C12FC695C695C69521
:1007E000B0E2CB9FE0011124C05FDB4F812F877007
:1007F000C80FD11DCF01810F911DDC0152968C9144
:100800009881892B88839401A501B601C70101E075
:100810000E946C3649015A016B017C011F5FC4CFF5
:10082000FC016F3F710581F1808581FD2DC0603233
:1008300071055CF581E090E002C0880F991F6A9510
:10084000E2F780959095092E000CAA0BBB0B428510
:1008500053856485758584239523A623B7238287D2
:100860009387A487B58782859385A485B585892BD1
:100870008A2B8B2B49F486859785A089B189892B92
:100880008A2B8B2B09F4108608956052710981E040
:1008900090E002C0880F991F6A95E2F780959095C5
:1008A000092E000CAA0BBB0B468557856089718900
:1008B00084239523A623B72386879787A08BB18BA4
:1008C000D2CFFC016F3F7105E9F1603371051CF077
:1008D00082E080870895808581608087603271051D
:1008E000C4F481E090E002C0880F991F6A95E2F796
:1008F000092E000CAA0BBB0B4285538564857585B8
:10090000842B952BA62BB72B82879387A487B5873B
:1009100008956052710981E090E002C0880F991F2C
:100920006A95E2F7092E000CAA0BBB0B468557858A
:1009300060897189842B952BA62BB72B8687978787
:10094000A08BB18B0895E0ECF8E020812E7F20830E
:10095000FC0117820895E0ECF8E082818E7F8283AB
:100960000895E0ECF8E08281816082830895FC01C3
:1009700054894589252F30E0842F90E0821B930B0A
:10098000541710F0CF96089501970895FC019289AD
:100990008389981761F0A389AE0FBF2FB11D5996B7
:1009A0008C9193899F5F9F73938B90E008958FEF55
:1009B0009FEF0895FC0192898389981731F083890C
:1009C000E80FF11D818D90E008958FEF9FEF08955E
:1009D000FC0192892389892F90E0805C9F4F821BC4
:1009E00091098F7399270895CF93DF93EC01E881E4
:1009F000F9810680F781E02D0995EC85FD858681DA
:100A00008F738683EC85FD8585818F7585838B89C2
:100A10008A8B198ADF91CF910895CF93DF93FC01E0
:100A200094898589C485D585981306C08D818F7D6D
:100A30008D83DF91CF910895A589AE0FBF2FB11D92
:100A4000A75ABF4F2C91858990E001968F73992703
:100A5000858B80E48C83A485B58512962C9394892C
:100A600085899813E6CFA485B58515968C91159741
:100A70008F7D15968C9387898823D9F2808D8093FA
:100A80001301178AD6CFDC011C96ED91FC910FB6AD
:100A900007FE03C0258125FD04C0248125FD0C949B
:100AA0000D050895EF92FF920F931F93CF93DF935D
:100AB000EC0181E0898B9C898D8998131CC0AC85E1
:100AC000BD8514968C91149785FF15C012966C9372
:100AD000AC85BD8580E414968C93EC85FD8585817D
:100AE0008F7D858381E090E0DF91CF911F910F9101
:100AF000FF90EF9008958091110180FF08C08091D0
:100B00001301888F8E898093130181E08F8BF62EDD
:100B10000C8910E00F5F1F4F0F731127E02E8D8996
:100B20008E1104C0CE010E944305F9CFEC89EC0F71
:100B3000FD2FF11DE75AFF4FF0820C8BEC85FD85F0
:100B400085818062CECFCF93DF93FC012189222360
:100B5000C9F0EC018091110180FF08C08091130160
:100B6000808F86898093130181E0878BEC85FD85DA
:100B7000858185FD03C0848186FD04C0CE010E946D
:100B80004305F4CFDF91CF910895CF93DF9390E0A9
:100B9000FC01E958F94420812F3F71F0FC01E05637
:100BA000F944A08130E2A39FD0011124BC5F6130E1
:100BB000710529F411962C93DF91CF9108958753F5
:100BC0009944EC01E881EF3F89F0CD014096E80FB0
:100BD000F92FF11D9FB7F89412962C938081623003
:100BE000710539F4886080839FBFE6CFF0E0E0E0D4
:100BF000F1CF877FF8CF282F30E0F901E25BF9448D
:100C0000E081EE2309F1E13021F0F0F0E63098F0D8
:100C100008954091010A27533944F90120812C5F3E
:100C200081E090E001C0880F2A95EAF7809584233F
:100C30008093010A089580E1E89FF0011124E05AB1
:100C4000F54F81818F7E81830895FF920F931F93CB
:100C5000CF93DF93082F10E0F801E958F944F080B2
:100C60009FEFF916A1F0EB01893210F40E94FB0509
:100C7000F801E056F944E08180E2E89FF001112498
:100C8000FC5F80818F2159F0CD2B39F4F682DF9102
:100C9000CF911F910F91FF900895F582F8CFD80161
:100CA000A753B9448C91309771F08F3F61F07096E3
:100CB000E80FF11D9FB7F8948081CD2B39F4877F21
:100CC00080839FBFE4CFF0E0E0E0F4CF8860F8CF0E
:100CD0000F931F93CF93082F10E0F801E958F944C0
:100CE000C081CF3FB9F0893210F40E94FB05F801B2
:100CF000E056F944E08180E2E89FF0011124FC5FB6
:100D00008085C82381E090E009F480E0CF911F91B5
:100D10000F91089580E090E0F9CF893210F40C949F
:100D200025060895893210F40C94C5050895CF92D4
:100D3000DF92EF92FF920F931F93CF93DF93EC011B
:100D40006A017B01022F8989882339F0E881F981C2
:100D50000288F389E02DCE01099598898091E205FA
:100D6000892B8093E2051FB7F89460E070E281EA76
:100D700097E0A70196010E94143669017A018FEF6E
:100D8000C81AD80AE80AF80AF694E794D794C794E0
:100D9000EC85FD8586818D7F8683EC85FD8586814A
:100DA0008683198AA09123110A2E000CBB0BA70180
:100DB00096010E94623620E034E040E050E00E945C
:100DC0003636EC85FD85C20ED31EE41EF51EC086A8
:100DD000D186EC85FD850783EC85FD858681806C59
:100DE0008683EC85FD858581806885838E8562E0BC
:100DF00070E00E9492068F8561E070E00E948D068F
:100E00008F8561E070E00E9492061FBFDF91CF9155
:100E10001F910F91FF90EF90DF90CF900895CF93A7
:100E2000DF938FB7F89420913A2A30913B2A409172
:100E30003C2A50913D2AE091BA0A9091B60A90FF5F
:100E400006C02F5F3F4F4F4F5F4FE091BA0A8FBFF1
:100E5000A091382AB091392AC091362AD091372AE8
:100E60000E94A135EC9F9001ED9F300D1124620F7F
:100E7000731F811D911DDF91CF9108958F929F92D5
:100E8000AF92BF92CF92DF92EF92FF924B015C0143
:100E90000E940F076B017C01A8EEB3E0A50194014D
:100EA0000E94A135C60ED71EE81EF91EC616D7062B
:100EB000E806F90618F40E940F07F8CF0E940F0702
:100EC0006C157D058E059F05C8F3FF90EF90DF90B0
:100ED000CF90BF90AF909F908F9008952FB7F894C8
:100EE0006091322A7091332A8091342A9091352A68
:100EF0002FBF0895DC01ED91FC910190F081E02D70
:100F00000994AF92BF92CF92DF92EF92FF920F932C
:100F10001F93CF93DF936C017B018B01040F151F8F
:100F2000EB015E01AE18BF08C017D10759F06991F7
:100F3000D601ED91FC910190F081E02DC60109955B
:100F4000892B79F7C501DF91CF911F910F91FF9008
:100F5000EF90DF90CF90BF90AF900895EF92FF9207
:100F60000F931F93CF93DF93C82FD0E0A09695E007
:100F7000CC0FDD1F9A95E1F7E984F82EFF0CFF0CEA
:100F8000FF0C01E010E08E2D8023A9F02F2D210F02
:100F900030E0220F331FF901E256F54D8081918137
:100FA000892B49F00190F081E02D225C354DD9016B
:100FB0008D919C9109951F5F000F183021F7E986EC
:100FC000DF91CF911F910F91FF90EF90089581E0F5
:100FD0000895CF92DF92EF92FF920F931F93CF93DA
:100FE000DF938C017B016A01EB01CE018E199F0911
:100FF0008C159D0554F46991D801ED91FC910190F7
:10100000F081E02DC8010995F0CFDF91CF911F91BC
:101010000F91FF90EF90DF90CF9008952F923F9225
:101020004F925F926F927F928F929F92AF92BF92F8
:10103000CF92DF92EF92FF920F931F93CF93DF93A4
:10104000CDB7DEB7A997CDBFDEBFDC01AC5BBF4F2C
:101050002C91E3E0E227E80FF92FF11D64832F5F65
:101060002C93203409F016C1FC01EB5BFF4F40804C
:101070005180628073804D865E866F86788A349652
:101080006080718082809380698A7A8A8B8A9C8A48
:10109000349680809180A280B3808D8A9E8AAF8AA8
:1010A000B88E3496A080B180C280D380A98EBA8ECB
:1010B000CB8EDC8E3496C080D180E280F380CD8EE2
:1010C000DE8EEF8EF8A2C986DA86EB86FC862D8549
:1010D0003E854F8558892D833E834F835887C98825
:1010E000DA88EB88FC88898C9A8CAB8CBC8C0D8957
:1010F0001E892F89388DBEE02B2E312C19A249A1D3
:10110000443108F04EC1B501A401402751276227A0
:1011100073274C215D216E217F212A013B01482448
:1011200059246A247B24B301A201475656486D47CF
:10113000754A4EA35FA368A779A7E9A1EF70F0E015
:101140003196EE0FFF1FEE0FFF1FE80FF91F4D80C6
:101150005E806F8078845BE17694679457944794BF
:101160005A95D1F74D815E816F817885A5E0440F56
:10117000551F661F771FAA95D1F74429552966295F
:1011800077294080518062807380440D551D661D13
:10119000771D2A013B014EA15FA168A579A5440EE8
:1011A000551E661E771E49855A856B857C85440DC4
:1011B000551D661D771D49835A836B837C832601E9
:1011C0003701B2E07694679457944794BA95D1F773
:1011D000B701A601EEE1440F551F661F771FEA9580
:1011E000D1F74429552966297729A9A1AF5FA9A379
:1011F000A03509F065C0FC01EB5BFF4F4D845E84B8
:101200006F847888C980DA80EB80FC804C0C5D1C90
:101210006E1C7F1C40825182628273823496C98820
:10122000DA88EB88FC884D805E806F807884C40CFF
:10123000D51CE61CF71CC082D182E282F382349670
:10124000CD88DE88EF88F88C4C0D5D1D6E1D7F1DEE
:1012500040835183628373833496498D5A8D6B8D9D
:101260007C8D400F511F621F731F40835183628327
:10127000738334962D8D3E8D4F8D58A1820E931E13
:10128000A41EB51E80829182A282B3828C5B9F4F86
:10129000DC011C92A996CDBFDEBFDF91CF911F91DB
:1012A0000F91FF90EF90DF90CF90BF90AF909F9005
:1012B0008F907F906F905F904F903F902F90089508
:1012C000E9A1EF70A4E0EA9FF00111242C014E0E79
:1012D0005F1E49865A86D2011496CD90DD90ED901E
:1012E000FC901797B9A1B03108F443C0F1013597CC
:1012F000EF70FF273196EE0FFF1FEE0FFF1FE80F75
:10130000F91FD101AF70BB271196AA0FBB1FAA0FFF
:10131000BB1FA80FB91F4D905D906D907C90C424A9
:10132000D524E624F7244080518062807380C42451
:10133000D524E624F724F1013B97EF70FF2731967F
:10134000EE0FFF1FEE0FFF1FE80FF91F40805180C7
:1013500062807380C424D524E624F724CC0CDD1CE1
:10136000EE1CFF1CC11CE985FA85C482D582E68289
:10137000F782FFEF2F1A3F0A89869A86AB86BC86D2
:10138000CD80DE80EF80F88449805A806B807C803D
:101390004D825E826F827886480159018A019B01E5
:1013A000AECE59A1583298F4B501A4014027512777
:1013B000622773272A013B014C245D246E247F247D
:1013C000B301A2014F55544166427149B2CE59A1B1
:1013D0005C33D8F4B901A8014C295D296E297F2915
:1013E000482159216A217B21280139014C205D20A7
:1013F0006E207F20442A552A662A772AB301A2014B
:1014000044525344644E704794CEB501A401402722
:101410005127622773272A013B014C245D246E2447
:101420007F24B301A2014A525E436D49754381CEC8
:1014300060E884EE9BE20E940E088091282C60E018
:101440008833B9F784EE9BE20E940E0860E084EED8
:101450009BE20E940E0860E084EE9BE20E940E0870
:1014600060913D2C70913E2C80913F2C9091402CAE
:101470002DE196958795779567952A95D1F784EE16
:101480009BE20E940E0860913D2C70913E2C809151
:101490003F2C9091402C35E19695879577956795EF
:1014A0003A95D1F784EE9BE20E940E0860913D2CA4
:1014B00070913E2C80913F2C9091402C4DE0969560
:1014C0008795779567954A95D1F784EE9BE20E94C0
:1014D0000E0860913D2C70913E2C80913F2C909194
:1014E000402C55E096958795779567955A95D1F755
:1014F00084EE9BE20E940E0860913D2C660F660F01
:10150000660F84EE9BE20E940E08E9E2FCE2619124
:101510007191819191910E945B36DF0114976D93D7
:101520007D938D939C9313978CE2ED33F80779F7B5
:1015300089E29CE20895262FFC01E75AFF4F408183
:101540005181628173814F5F5F4F6F4F7F4F408347
:10155000518362837383622F0E940E080895FC01F9
:10156000A081B181109781F1A60FB71F8C9190E0F7
:101570008C3F91055CF122E030E08C3F910539F021
:1015800028E030E08D3F910511F423E030E0A9011F
:101590004150510983E0440F551F8A95E1F790E0CF
:1015A00080E0FD01E20FF31FE081F0E0042E02C0B5
:1015B000EE0FFF1F0A94E2F78E0F9F1F485051094C
:1015C0002150310971F708958FEF9FEF0895DC01E5
:1015D000ED91FC910688F789E02D099590E008953A
:1015E000FC0127E030E080E070E0DB01022E02C069
:1015F000B595A7950A94E2F7AD0141705527A0FF74
:1016000006C0908901C0440F9A95EAF7842B2150B7
:10161000310931972F3F320741F708950895CF924E
:10162000DF92EF92FF92CF93C82F0E946E076B015B
:101630007C01809102288932C8F40E946806892BB7
:10164000A9F0CC23B1F30E946E076C197D098E09B5
:101650009F09603177428105910558F7E091D52CBB
:10166000F091D62C309729F30995E3CFCF91FF90D5
:10167000EF90DF90CF900895CF93DF931F92CDB777
:10168000DEB7898369818FEF9AE20F90DF91CF9166
:101690000C945D03CF93DF93D82FC62F80EE0E946A
:1016A0003C0B8D2F0E943C0B8C2F0E943C0BC111D8
:1016B00005C08EEEDF91CF910C943C0BDF91CF9162
:1016C0000895DF92EF92FF920F931F93CF93DF93D2
:1016D000D82EE92E8B01F42E812F0E943C0B802FF7
:1016E0000E943C0BCD2DDE2D0C0F1D1FC017D10706
:1016F00021F089910E943C0BF9CF81E0F8120AC0D9
:101700008EEEDF91CF911F910F91FF90EF90DF90C0
:101710000C943C0BDF91CF911F910F91FF90EF90B4
:10172000DF900895DF92EF92FF920F931F93CF9374
:10173000DF937C01C62FD42E862F0E943C0B87019D
:10174000D0E0C8018E199F098C179D0734F4F80169
:1017500081918F010E943C0BF4CFF1E0DF120AC0AF
:101760008EEEDF91CF911F910F91FF90EF90DF9060
:101770000C943C0BDF91CF911F910F91FF90EF9054
:10178000DF900895CF93DF93EC018FEF0E943C0B25
:101790008883DF91CF910895CF93DF931F92CDB7C8
:1017A000DEB71982CE0101960E94C20B89810F908B
:1017B000DF91CF910895CF93DF93C9EED3E00E94DC
:1017C000CC0B8F3E69F0219711F0803EC1F721E0EC
:1017D00090E0803E09F020E0822FDF91CF910895C4
:1017E0008FEF9FEFFACFCF92DF92EF92FF920F939E
:1017F0001F93CF93DF931F92CDB7DEB7182F6B01E6
:101800007A0119820E94DB0B892B61F490E080E061
:101810000F90DF91CF911F910F91FF90EF90DF908C
:10182000CF900895CE0101960E94C20B1068898165
:101830001813ECCFCE0101960E94C20B8981813032
:1018400029F78FEF0E943C0BF701808310E000E046
:10185000F70180818017110649F044F0C601800F1E
:10186000911F0E94C20B0F5F1F4FF2CFCE01019656
:101870000E94C20B81E090E0CBCF6F927F928F925B
:101880009F92AF92BF92CF92DF92EF92FF920F930F
:101890001F93CF93DF931F92CDB7DEB7182F662E1D
:1018A0007A0119820E94DB0B892B91F490E080E091
:1018B0000F90DF91CF911F910F91FF90EF90DF90EC
:1018C000CF90BF90AF909F908F907F906F90089532
:1018D000CE0101960E94C20B106889811813E6CFD1
:1018E0000E94CC0B782E882309F38701D12CC12CC0
:1018F000882E912CC814D90404F58FEF0E943C0B5C
:10190000F8018083F12CE12CF80180818E151F04F1
:1019100071F06CF0A180B280AE0CBF1C8FEF0E9402
:101920003C0BF5018083FFEFEF1AFF0AEDCF8FEF3D
:10193000C81AD80A0D5F1F4FDDCF7610B7CFCE0182
:1019400001960E94C20B81E090E0B2CF61E070E0AE
:10195000809101280E948D068FEF9AE20C94670314
:1019600021E0FC0184858F3F09F420E0822F089557
:101970000895FC0167870895CF93DF931F92CDB739
:10198000DEB76983DC01ED91FC910280F381E02DEB
:1019900041E050E0BE016F5F7F4F09950F90DF91EE
:1019A000CF910895DC0180E0615090F09D919827DF
:1019B000E92FEF70F0E0E656FC4F2491E92FE29515
:1019C000EF70F0E0E655FC4FE491822F8E27ECCFCC
:1019D0000895CF93DF93FC012081A181B281F89417
:1019E000FD0138978081822B8083ED0124979881B7
:1019F000322F30959323988387E090E00197F1F799
:101A000080818323808383E290E00197F1F79C91AA
:101A10007894EFECF0E03197F1F7922381E009F44C
:101A200080E0DF91CF910895FC019081A181B28186
:101A3000292F2095FD013497189760FF14C0F89462
:101A40008081822380838C91892B8C93A3E2B0E0E8
:101A50001197F1F78081982B9083789487ED90E02F
:101A60000197F1F70895F8948081822380838C9107
:101A7000892B8C93AFEFB0E01197F1F78081982B11
:101A8000908378948FE090E0EBCFDF92EF92FF921B
:101A90000F931F93CF93DF93EC01D62EE42E08E033
:101AA00010E0FF24F39461E08D2D8F2109F460E0B4
:101AB000CE010E94140DFF0C01501109A1F7E11095
:101AC00012C0F894E981FA813897908188818095D5
:101AD00089238083E981FA81349790818881809578
:101AE000892380837894DF91CF911F910F91FF908C
:101AF000EF90DF900895EF92FF920F931F93CF9393
:101B0000DF938C017B0140E065E50E94450DE70114
:101B100088E0E80EF11C699140E0C8010E94450D83
:101B2000CE15DF05C1F7DF91CF911F910F91FF9087
:101B3000EF900895CF93DF93FC019081A181B28152
:101B4000F894FD0138978081292F20958223808386
:101B500078943DE743E050E0315049F1EA012197A4
:101B6000F1F78C918923C1F3F894ED0124978881D2
:101B7000822388838081892B80837894CBE7D7E088
:101B80002197F1F7F894808182238083E3E1F1E0EB
:101B90003197F1F78C91982381E009F080E07894F7
:101BA000E3E6F6E03197F1F7DF91CF91089580E019
:101BB000FBCF4F925F926F927F928F929F92AF92E4
:101BC000BF92CF92DF92EF92FF920F931F93CF932A
:101BD000DF938C017B01EA01FC01818592850E94E3
:101BE0009A0D8823D9F1B701F801818592850E9469
:101BF0007B0D40E06EEBF801818592850E94450DDA
:101C00006E015E01F9E0AF0EB11C7E01F801818426
:101C1000928488E0682E712C512C44244394C40192
:101C20000E94E90C81115428440CF1E06F1A7108EC
:101C3000B1F7F70151927F01AE16BF0639F7F801EF
:101C4000818592850E949A0D813041F4F60181913F
:101C50006F01811105C0EE15FF05C1F790E008C0C6
:101C600068E0CE010E94D20C91E028852813F6CFBF
:101C7000892FDF91CF911F910F91FF90EF90DF900F
:101C8000CF90BF90AF909F908F907F906F905F901C
:101C90004F900895CF93DF93CDB7DEB72997CDBF8F
:101CA000DEBFAE014F5F5F4F0E94D90D882331F038
:101CB0008D818F3391F020F48F3189F080E007C05F
:101CC0008F3521F08F37D1F78CE001C08BE029965A
:101CD000CDBFDEBFDF91CF9108958AE0F8CF89E0D4
:101CE000F6CF0F9391E09093D6291092D529609367
:101CF000D3297093D4294093D2292093D1291092CB
:101D0000D0291092CF290093CE29880F8093CD2916
:101D100023E030E044E050E08091D229882341F074
:101D20002093CB293093CC298091CD298E7F0BC075
:101D30008091D129882351F04093CB295093CC290D
:101D40008091CD2981608093A70808C08091D22915
:101D5000811104C08091D129882311F38091D52964
:101D60008823E1F38091D5298330B1F28091D12984
:101D7000882321F08091CF290F9108958091D52952
:101D8000823031F0853031F0813031F480E0F4CFB1
:101D900081E0F2CF83E0F0CF84E0EECFE0EAF8E03C
:101DA00091859066918722E030E02093CB29309393
:101DB000CC298093BD291092BC29089581E080939D
:101DC000BC291092BD2993E09093AA089091AB088A
:101DD00091FF10C01092C929E091BA29F091BB2956
:101DE00009958093C82985E090E08093CB29909352
:101DF000CC2908951092CA298093C72986E090E0E3
:101E0000F4CF8F929F92AF92BF92CF92DF92EF92D8
:101E1000FF92CF93DF9360342DE0720723E08207B7
:101E2000910508F454C0611525E372072CE0820780
:101E3000910508F445C060387F448241910508F05F
:101E400046C0C8E7D0E020E432E44FE050E08090A4
:101E5000032890900428A0900528B0900628C5017A
:101E6000B4010E94143669017A018AE0C81AD108C7
:101E7000E108F108C501B40120E432E44FE050E08C
:101E80000E941436DE010E94A13528EE33E040E0C6
:101E900050E00E941436C21AD30AE40AF50AF694F6
:101EA000E794D794C794C092A608DF91CF91FF9092
:101EB000EF90DF90CF90BF90AF909F908F9008955C
:101EC000CCE2D1E020E83AE146E050E0C0CFC8EEF5
:101ED000D3E020EA36E841E050E0B9CFCB01BA01C7
:101EE0000C94010F6093B8297093B92908956093F9
:101EF000B6297093B7290895E091B829F091B929CE
:101F0000309741F01092B5291092B429099580912B
:101F1000B429089580E00895E091B629F091B72999
:101F2000309759F03091B3292091B229321728F017
:101F30001092B3298093B22909940895E091B329AE
:101F40008091B229E81730F4F0E0EE5CF64D808124
:101F500090E008958FEF9FEF08959091B3298091BD
:101F6000B2292FEF3FEF981748F4E92FF0E0EE5C2D
:101F7000F64D208130E09F5F9093B329C901089509
:101F80008091B2299091B329891B990B0895CF9222
:101F9000DF92EF92FF920F931F93CF93DF937C0119
:101FA0008A01EB016B01C40ED51ECC15DD0551F085
:101FB0006991D701ED91FC910190F081E02DC7016D
:101FC0000995F3CFC801DF91CF911F910F91FF9039
:101FD000EF90DF90CF9008952091B42927FF08C09B
:101FE00021E030E0FC012283338390E080E008951B
:101FF0008091B529E82FF0E0EE54F74D60838F5FB4
:102000008093B5298093B42981E090E00895DC01A4
:10201000ED91FC91008CF18DE02D61E009940F931E
:102020008091CB299091CC290197A1F48091D62958
:10203000811112C0062F20E04091B42962EB78E2B2
:102040008091B1280E94710E1092B5291092B42986
:102050000F91089580E0F8CF81E0F6CF6093B1282A
:102060001092B5291092B42908950F931F93CF931E
:102070008C01C62FFC01628987ED9CE20E942E1024
:10208000F80160856C2B87ED9CE20E94EC0F61E00B
:1020900087ED9CE20E940F1091E0811190E0892F62
:1020A000CF911F910F9108959F92AF92BF92CF92BF
:1020B000DF92EF92FF920F931F93CF93DF93EC0188
:1020C000A62EB42E922E642F6695669566956E7137
:1020D0006A290E94F00A182F682FCE010E9435103D
:1020E0008E85C12CD12C7601C394A701960104C022
:1020F000220F331F441F551F8A95D2F7C9018095BF
:10210000682F6123CE010E94351007EA10E0C80154
:102110000197F1F738E093121DC06B2D660F6E71B9
:102120006A29CE010E94F00AB82E682FCE010E94C3
:1021300035108E8504C0CC0CDD1CEE1CFF1C8A956E
:10214000D2F7C0946C2D6B21CE010E943510C801CE
:102150000197F1F7DF91CF911F910F91FF90EF90D1
:10216000DF90CF90BF90AF909F900895CF93DF9373
:1021700000D000D0CDB7DEB719821A8290E49A83DE
:102180009091B52D9B8320E4290F2C832091B62DAF
:10219000621710F06FEF620F891710F08FEF890F41
:1021A000FE01E60FF11D4181480F406828E060E222
:1021B0008FEA9DE22496CDBFDEBFDF91CF910C94D4
:1021C000541028E041E060E28FEA9DE20E94541042
:1021D00062E070E080E090E00C943E07462F28E03B
:1021E00060EA0E94541081E090E00895DC01ED91D6
:1021F000FC91048CF58DE02D21E009940F9382E38E
:1022000099E28093BE299093BF298091CB29909128
:10221000CC290197C9F48091D629811117C0FA0100
:102220004138510510F0E0E8F0E0022F862F2E2F04
:1022300040E070E060E00E94710E1092B32980933C
:10224000B22990E00F91089580E0F7CF81E0F5CFBB
:10225000E0EAF8E01382168281E085831486118615
:102260001092CB291092CC2908951092B329109284
:10227000B2291092B5291092B4298091CB2990915E
:10228000CC29892BD9F482E090E08093CB299093DC
:10229000CC291092CA291092C9291092BC291092F7
:1022A000BD291092B0281092C729660F6093AC0820
:1022B00081EE8093A90881E08093A3088CE79FE0DA
:1022C0008093BA299093BB2982EB98E28093C0292E
:1022D0009093C1298CE89FE08093C5299093C629EB
:1022E00082E399E28093C2299093C32980E8809386
:1022F000C42908951092B3291092B2291092B529D9
:102300001092B4298091CB299091CC29892BF1F49A
:102310008091E3058093E30581E090E08093CB29F1
:102320009093CC291092CF291092D0291092D629BF
:102330001092D52981EC8093A30860EA76E881E0C9
:1023400090E00E94010F81E08093A508089590E03D
:1023500080E00895DC01ED91FC910088F189E02D89
:1023600023E030E00994DF92EF92FF920F931F93E6
:10237000CF93DF93DC011496ED91FC91E417F50700
:1023800010F490E029C0D22E8A017B01EC018981F2
:102390009A81DC01ED91FC910688F789E02D688136
:1023A000099589819A81DC01ED91FC910280F3818C
:1023B000E02DA801B70109950817190711F78981C0
:1023C0009A81DC01ED91FC91008CF18DE02D6D2D59
:1023D000099591E08111D5CF892FDF91CF911F9180
:1023E0000F91FF90EF90DF900895BF92CF92DF9210
:1023F000EF92FF920F931F93CF93DF93EC01B62ED2
:10240000C72E8D85811105C0CE010E949A0D8111C4
:102410000EC01B861D861C8680E0DF91CF911F9128
:102420000F91FF90EF90DF90CF90BF90089540E024
:1024300060EFCE010E94450D01E0E12CD12C11E0AE
:10244000CE010E94E90CF82ECE010E94E90C91E029
:10245000F91218C0813099F51134D8F2DB86D11009
:1024600002C081E08D878B81882399F22396EB2D22
:10247000FC2DCF01089629912193E817F907D9F788
:1024800081E0CBCFEE2DF0E0F8120FC08B8518174E
:10249000A0F4DE01AE0FBF1F13968C91802379F458
:1024A000F12C193008F41C87D12EEC0FFD1F83810D
:1024B000902F9095892383830AC08113F1CFFE0169
:1024C000EE0DF11D8381802B8383FF24F3946F2D08
:1024D000CE010E94140D1F5F000F11F4E39401E080
:1024E00087E08E1508F0ACCFB7CFDF92EF92FF9266
:1024F0000F931F93CF93DF937C018B01D42EDC01CC
:102500001996ED91FC911386158614861286118614
:10251000108617821682158214821382C0E0B801D9
:10252000F701818592850E94F511D82F882329F023
:10253000DC1629F0CF5FDC1690F7D0E009C067E029
:10254000C8010E94D20CD80117969C918913F2CF32
:102550008D2FDF91CF911F910F91FF90EF90DF9022
:1025600008950F931F93CF93DF93CDB7DEB7619795
:10257000CDBFDEBF8C0140E0BE01665F7F4F0E9491
:10258000751281110CC06AE979E984E493EC6196D3
:10259000CDBFDEBFDF91CF911F910F910895AE01A6
:1025A0004F5F5F4FBE01665F7F4FC8010E94D90D2C
:1025B000882349F36A8170E0762F6627770F770FBB
:1025C000770F298148E0249F90011124262B372B77
:1025D0008A858031E1F468856623C9F070E08F81D7
:1025E000AB01481B5109CA019695982F88279795EA
:1025F00087950E940036CB018097B90153E0660FA2
:10260000771F5A95E1F760789C01260F371F213814
:1026100054EE35070CF4B7CFB901330F880B990B83
:102620000E94843426E636E646E65CE30E94E33404
:1026300020E030E040E052E40E949436A8CFFB0155
:1026400001900020E9F73197AF01461B570BDC01E1
:10265000ED91FC910280F381E02D09948F929F927D
:10266000AF92BF92EF92FF920F931F93CF93DF939E
:10267000CDB7DEB7A197CDBFDEBF7C01FA01CB019C
:1026800019A2223008F42AE08E010F5D1F4F822E1E
:10269000912CB12CA12CBF01A50194010E941436EC
:1026A000F901CA016A30F4F4605DD8016E938D01BE
:1026B000232B242B252B79F790E080E0109721F035
:1026C000BD01C7010E941F13A196CDBFDEBFDF91E0
:1026D000CF911F910F91FF90EF90BF90AF909F907F
:1026E0008F900895695CE1CFCF92DF92EF92FF92D5
:1026F000CF93DF936C01990FEE08FF08F7FE1BC024
:102700006DE289E49BE20E947A07EC014427552799
:10271000BA014C195D096E097F092AE089E49BE240
:102720000E942E138C0F9D1FDF91CF91FF90EF9091
:10273000DF90CF9008952AE0B701A60189E49BE2DB
:10274000DF91CF91FF90EF90DF90CF900C942E13FC
:102750008F929F92AF92BF92CF92DF92EF92FF92B1
:102760000F931F93CF93DF937C018B016C0182E069
:10277000C80ED11C4701E5E08E0E911CD0E0C0E0F0
:10278000F60141916F0150E070E060E02AE0C8017D
:102790000E942E135C016EE2C8010E947A078A0D26
:1027A0009B1DC80FD91FC814D90451F7F7014581E3
:1027B00050E070E060E02AE0C8010E942E138C0F08
:1027C0009D1FDF91CF911F910F91FF90EF90DF90B0
:1027D000CF90BF90AF909F908F9008954F925F924F
:1027E0006F927F928F929F92AF92BF92CF92DF9221
:1027F000EF92FF926B017C01AC019B010E94343788
:1028000060EA77EB811126C046015701E894B7F8DA
:102810002FEF3FEF4FE75FE7C501B4010E94343768
:1028200081110CC02FEF3FEF4FE75FE7C501B40107
:102830000E947D3464EA77EB181664F02FEF3FEFC7
:102840004FE75FE4C701B6010E942F37181694F4D2
:1028500068EA77EB8FEA9DE2FF90EF90DF90CF90F0
:10286000BF90AF909F908F907F906F905F904F90B0
:102870000C941F132FEF3FEF4FE75FECC701B6013A
:102880000E947D3487FDE4CF20E030E0A901C7013C
:10289000B6010E947D34B12CA12C87FF0AC06DE2E5
:1028A0008FEA9DE20E947A075C01F7FAF094F7F84C
:1028B000F0942AE037ED43EA5BE3C701B6010E94DA
:1028C00094362B013C010E9400376B017C010E9471
:1028D00082349B01AC01C301B2010E9493362B01EB
:1028E0003C012AE0B701A6018FEA9DE20E942E1367
:1028F0007C01EA0CFB1C6EEE77EB8FEA9DE20E94F6
:102900001F13E80EF91E20E030E040E251E4C3015D
:10291000B2010E94E3342B013C010E9400374B01BD
:10292000B12CA12C2AE0B501A4018FEA9DE20E94FE
:102930002E13E80EF91EC501B4010E9482349B01DA
:10294000AC01C301B2010E94933620E030E040E2C6
:1029500051E40E94E3340E940037AB0170E060E074
:102960002AE08FEA9DE20E942E138E0D9F1DFF909C
:10297000EF90DF90CF90BF90AF909F908F907F901F
:102980006F905F904F9008956CEA77EB0C941F1353
:102990001F93CF93DF93EC01162FFE016491662302
:1029A00031F089E49BE20E947A072196F6CF112349
:1029B00039F089E49BE2DF91CF911F910C94C4140C
:1029C000DF91CF911F9108950F931F93CF93DF93C2
:1029D0008C01D0E0C0E06115710519F00E941F1351
:1029E000EC01C8010E94C4148C0F9D1FDF91CF9190
:1029F0001F910F9108950C941F130F931F93CF9362
:102A0000DF93EC016FEA77EB89E49BE20E94FB1411
:102A1000E881F981438150E070E060E02AE089E4D8
:102A20009BE20E942E1368EB77EB89E49BE20E9405
:102A3000FB148A819B8103960E94741363EC77EBED
:102A400089E49BE20E94E4146BEC77EB89E49BE25F
:102A50000E94FB1410E000E08A819B81029680179F
:102A60009107ACF0E881F981E00FF11F408150E05F
:102A700070E060E020E189E49BE20E942E1360E2B6
:102A800089E49BE20E947A070F5F1F4FE5CF89E43C
:102A90009BE20E94C41463ED77EB89E49BE20E9401
:102AA000FB1410E000E08A819B8102968017910759
:102AB00064F0E881F981E00FF11F608189E49BE215
:102AC0000E947A070F5F1F4FEECF89E49BE2DF91F0
:102AD000CF911F910F910C94C4140F931F93CF9318
:102AE000DF938C016BED77EB89E49BE20E94FB1492
:102AF000D801ED91FC918FEF9FEF309739F08181F4
:102B000090E0982F88272081820F911D0E947413D6
:102B100060EC78EB89E49BE20E94FB14F801808171
:102B20009181892B01F1D0E0C0E0D80112968D91FE
:102B30009C9113970997C817D9075CF4ED91FC9104
:102B4000EC0FFD1F658589E49BE20E947A072196C0
:102B5000ECCF6EEE77EB89E49BE2DF91CF911F9192
:102B60000F910C94E414DF91CF911F910F91089570
:102B700044E150E06CE474E089E29CE20E943D3262
:102B800010923D2C10923E2C10923F2C1092402C13
:102B90001092282C08950C94D5374F925F926F9223
:102BA0007F92AF92BF92CF92DF92EF92FF920F93FC
:102BB0001F93CF93DF9300D000D0CDB7DEB78C0149
:102BC000DC018D919C91009729F00E94D537F80186
:102BD000108211820E946E076B017C01F8EBCF0E10
:102BE000FBE0DF1EE11CF11C0E946E072B013C0183
:102BF000D80114968D919C91DC01ED91FC9100849B
:102C0000F185E02D09955C0104976CF56CE271E0AB
:102C100080E090E00E943E074C145D046E047F0447
:102C20001CF3AB2851F4F80184819581DC01ED910E
:102C3000FC910488F589E02D099561E086ED93E02B
:102C40002496CDBFDEBFDF91CF911F910F91FF90F2
:102C5000EF90DF90CF90BF90AF907F906F905F909C
:102C60004F900C94C814FE0131966F015E01F5E09F
:102C7000AF0EB11C7601D80114968D919C91DC01A8
:102C8000ED91FC910284F385E02D0995F701819384
:102C90007F01EA15FB0579F78A8190E0982F882754
:102CA0002981820F911DD80112968D939C931397C1
:102CB00097FF08C061E088EC93E00E94C814F80117
:102CC00012821382D80112968D919C9104960E94D3
:102CD0003937F80180839183F12CE12C892B21F481
:102CE00061E08AEB93E0ACCFD6018D916D01D80104
:102CF000ED91FC91EE0DFF1D8083BFEFEB1AFB0AF7
:102D0000E4E0EE16F10481F7D80112968D919C91C2
:102D1000139703968E159F05A4F014968D919C91A0
:102D2000DC01ED91FC910284F385E02D0995D80139
:102D3000ED91FC91EE0DFF1D8083BFEFEB1AFB0AB6
:102D4000E3CF2496CDBFDEBFDF91CF911F910F91CE
:102D5000FF90EF90DF90CF90BF90AF907F906F90FB
:102D60005F904F9008954F925F926F927F92AF92D3
:102D7000BF92CF92DF92EF92FF920F931F93CF9368
:102D8000DF93EC01C757DF4FE881F9810190F081B3
:102D9000E02D309709F46EC05C0125E8A20EB11C4D
:102DA0002FEF3FEFD5012D933C936C01B7E8CB0E8D
:102DB000D11CD6012D933C939B012F5F3F4F2901DE
:102DC000330F6608770853E0DF011D925A95E9F743
:102DD0002083BFEF4B165104610471040CF05AC0FC
:102DE000E881F9810190F081E02D1382E881F98179
:102DF0000190F081E02D21E0411101C023E0248306
:102E00007B018C0188819981FC0120813181232BF8
:102E100011F00E94FD14E881F98184819581A70158
:102E20004B5F5F4F60817181DC01ED91FC9102800D
:102E3000F381E02D0995E881F98184819581DC0198
:102E4000ED91FC910680F781E02D099588819981AB
:102E50000E94CD150990D881C02DE881F981309765
:102E600009F446C0848190E08F3F9105A9F4CE011A
:102E70000E946D1580E0DF91CF911F910F91FF901F
:102E8000EF90DF90CF90BF90AF907F906F905F906A
:102E90004F9008955182A4CF009719F08E3F91056D
:102EA00039F5858190E006E010E08C3F910564F0F3
:102EB00007E010E08C3F910539F008E010E08D3F0D
:102EC000910511F00DE010E065E070E0CE010E9488
:102ED000AF0AF50180839183181619063CF4B801F6
:102EE000CE010E94AF0AD6018D939C9381E0C3CF9F
:102EF000F8011082FBCF8F929F92AF92BF92CF9238
:102F0000DF92EF92FF920F931F93CF93DF93CDB792
:102F1000DEB7C456D109CDBFDEBF6C0104E010E0BE
:102F200082E9A82E87EBB82E0150110909F4D6C109
:102F300063EE77EB89E49BE20E94E4148091ED2C30
:102F40009091EE2CDC01ED91FC910684F785E02D4B
:102F5000A982BA82D60112964D915D916D917C91B4
:102F600015974B835C836D837E834AEE5CE0BE01E4
:102F70006F5F7F4F09957C01019709F46FC060EF87
:102F800077EB89E49BE20E94FB14C7010E94741353
:102F900069EF77EB89E49BE20E94E41464EF71E04F
:102FA00080E090E00E943E07BFCF8F010E191F09FD
:102FB00081918111FACF5801F4E0AF1AB108C5012F
:102FC0000E9439378093EF2C9093F02CA501B60125
:102FD0000E946738F8013596EE0DFF1DA1EFBCE2A7
:102FE00081918D938CE2A93FB807D1F7005E1F4F06
:102FF000F701E00FF11FA9EFBCE281918D939DE2F3
:10300000A530B907D1F7C7010E94D53738C09182E2
:1030100036C160E08FE294E00E94C8146091EF2C0A
:103020007091F02C89E49BE20E94E4148091EF2CD3
:103030009091F02C0E94D53781E0CC59DF4FCDBF65
:10304000DEBFDF91CF911F910F91FF90EF90DF9046
:10305000CF90BF90AF909F908F90089589EE9CE2A3
:103060000E94CD15E090E92CF090EA2C6701E5E094
:10307000CE0ED11CF601E114F10409F096CF80E0E8
:1030800091E00E943937FC018093E92C9093EA2C5F
:103090008DE0848386EA858383E0868317821086A9
:1030A0001186128681E0838788E084878DE090E036
:1030B000E091E92CF091EA2CE80FF91F10820196BB
:1030C00085329105A9F700E918E2D8010D9000209A
:1030D000E9F7AD0141595842C090E92CD090EA2C53
:1030E000B801C60184960E945E38F8010190002064
:1030F000E9F78F01015918425801F5E2AF0EB11CF2
:103100007501F601E00FF11F14A284E190E00E9426
:1031100039376C0180918B28882309F48BC00E9479
:10312000B8156BE878E284EE9BE20E94FB140E94E3
:10313000180AFC0194E1DE01AF5ABF4F01900D92D5
:103140009A95E1F70E94B81544E150E0BE016F5A2C
:103150007F4F84EE9BE20E94E9070E94180AFC015F
:1031600094E1DE01DD9601900D929A95E1F70E94BF
:10317000B81584E1E1EFFCE2DE01119601900D92B9
:103180008A95E1F784E1FE01FD96DE0155960190F6
:103190000D928A95E1F748E250E0BE016F5F7F4FE4
:1031A00084EE9BE20E94E9070E94180AFC0194E168
:1031B000DE01999601900D929A95E1F7CE018F5A12
:1031C0009F4F7C01AE01475D5F4FD601B6016C5E3B
:1031D0007F4FC601F70121917F01FA013191AF01C3
:1031E0002327FC012193CF016E177F0799F7E09108
:1031F000E92CF091EA2CEA0DFB1D84E18083C801E3
:103200008696065C1F4F2D91E091E92CF091EA2CF7
:10321000E80FF91F2083019608171907A1F7750118
:10322000F5E1EF0EF11CE091E92CF091EA2CEE0DA6
:10323000FF1D1082C6010E94D537A7014F5F5F4F67
:10324000E091E92CF091EA2CE40FF51F108283E065
:10325000E81AF1084701FF0CAA08BB08E091E92C25
:10326000F091EA2C23E0DF011D922A95E9F7E08234
:10327000BFEF8B169104A104B1040CF0C8CE60918D
:10328000E92C7091EA2C81E0FB0183838091ED2C85
:103290009091EE2CDC01ED91FC910280F381E02D08
:1032A00009958091ED2C9091EE2CDC01ED91FC9133
:1032B0000680F781E02D099589EE9CE20E94CD15EC
:1032C000E091E92CF091EA2C309721F08481882359
:1032D00009F49FCE89EE9CE20E946D1580E0ADCE90
:1032E000CF92DF92EF92FF920F93FC01C12CB9E0D5
:1032F000DB2EBDE3EB2EF12CC082D182E282F38281
:103300001482158281E090E086839783C090032821
:10331000D0900428E0900528F0900628F694E794D1
:10332000D794C79490E04C155D056E057F0540F479
:10333000F694E794D794C7949F5F9630A1F797E0EF
:1033400004600187892F8095A82FA170B0E084E0E8
:10335000AA0FBB1F8A95E1F791629A2B80E0232B7D
:1033600009F480E4982B90870F91FF90EF90DF9005
:10337000CF9008950F931F93CF93DF93CDB7DEB710
:103380002A97CDBFDEBF8C01FC01878181110CC063
:103390001086118612861386148615861686178661
:1033A000108A118A81E087838091E305F801968174
:1033B000892B8093E30561E070E083810E9492068F
:1033C00061E070E0F80184810E9492068091C1085A
:1033D00084608093C1088091C00881628093C00896
:1033E0004091412B5091422B6091432B7091442B83
:1033F0000091452B2091472B3091482BCE0101960F
:103400000E94701999858A859093C0088093C1089D
:103410002A96CDBFDEBFDF91CF911F910F91089506
:10342000CF9383E28093012884E280930228C1E055
:10343000C093D7298DE18093002861E070E083E29A
:103440000E94C50570E060E084E20E94920661E09F
:1034500070E08DE10E94920661E070E08CE10E94D4
:10346000C50561E070E08CE10E94250661E070E036
:1034700083E20E948D0661E070E08DE10E948D067E
:103480006AE070E080E090E00E943E0770E060E05B
:103490008DE10E948D066EEE72E080E090E00E9469
:1034A0003E0770E060E08CE10E94250670E060E07D
:1034B0008CE10E94C5058FEF9AE20E94BA19C09371
:1034C000FE2ACF9108955F926F927F928F929F9282
:1034D000AF92BF92CF92DF92EF92FF920F931F9322
:1034E000CF93DF93CDB7DEB76297CDBFDEBF3C0190
:1034F0000B871C872D873E87042F4F87588B698B3E
:103500007A8B29893A894B855C856D857E85CE01CC
:1035100001960E94701959841A85D30118968C91CE
:10352000882319F081FF18C0F8945092C0081093B6
:10353000C1086296CDBFDEBFDF91CF911F910F9181
:10354000FF90EF90DF90CF90BF90AF909F908F90C3
:103550007F906F905F90089580FFE7CFF3018284A2
:103560009384A484B584C12CD12C7601B0E094015D
:10357000A501B601C701A0E00E948736A9F121701C
:1035800030E040E050E060E070E080E090E00E94D9
:103590008736E9F090E080E0B03370F48B2F8695A9
:1035A00086958695F0E28F9FC0011124805F9B4F26
:1035B0002B2F2770820F911DFC01408193012B0F4F
:1035C000311DF901428BFC012081287F2083940169
:1035D000A501B601C70101E00E946C3649015A01FC
:1035E0006B017C01BF5FC3CFD3011E968D909D9070
:1035F000AD90BC905197C12CD12C7601B0E29401D2
:10360000A501B601C701A0E00E94873609F48DCF5D
:10361000217030E040E050E060E070E080E090E059
:103620000E948736E9F090E080E0B03370F48B2F91
:10363000869586958695E0E28E9FC0011124805F75
:103640009B4F2B2F2770820F911DFC01408193010E
:103650002B0F311DF901428BFC012081287F208333
:103660009401A501B601C70101E00E946C36490131
:103670005A016B017C01BF5FC2CFCF92DF92EF9204
:10368000FF920F931F93CF93DF93CDB7DEB72897A9
:10369000CDBFDEBF80E0082F1D821E8281E0682F33
:1036A00012E12AE730E040E05E8170E08FEF9AE2BD
:1036B0000E94631A70E060E0809101280E948D06EC
:1036C0000E946E076B017C01809102288932B8F05C
:1036D0000E946E076C197D098E099F09653071057E
:1036E0008105910588F32896CDBFDEBFDF91CF918C
:1036F0001F910F91FF90EF90DF90CF9008950E945F
:103700006806019781F3E4CFCF92DF92EF92FF92A8
:103710000F931F93CF93DF93CDB7DEB72897CDBF1D
:10372000DEBF6C01162FF42EE52E2F830887198239
:103730001A821B821C828091FE2A811102C00E9483
:10374000101A80E00E940F0B0E943D1B65E08DE285
:103750000E944A0B40E0612FC6010E94920B40E09C
:1037600064E0CE0101960E94920B82E00E943C0B25
:103770008E2D0E943C0B8F2D0E943C0B40E061E09F
:10378000CE0107960E94920B41E061E0CE010896BF
:103790000E94920B012F10E0C80141968370992777
:1037A0000F5F1F4F892B19F00E94CC0BF5CF0E94A1
:1037B000A60C81E09885943009F080E00E940F0B00
:1037C0000E943D1B1E821D82AE014B5F5F4FBE01FA
:1037D0006A5F7F4F8DE20E94F30B0E94A60C289631
:1037E000CDBFDEBFDF91CF911F910F91FF90EF9082
:1037F000DF90CF900895CF92DF92EF92FF920F93D8
:103800001F93CF93DF9300D000D0CDB7DEB77C01FC
:1038100086E08E9D80018F9D100D11240B56134D57
:10382000F80184819581892B09F08CC08081918178
:10383000892B59F480E490E00E943937F8018283A3
:103840009383808391831482158280E490E089833E
:103850009A8386E08E9DF0018F9DF00D1124EB562A
:10386000F34DC080D180EC828CE10E946806892BE8
:1038700009F468C08091FE2A811102C00E94101ACA
:1038800080E00E940F0B0E943D1B62E085E40E94D5
:103890004A0B40E061E070E0CE0104960E94610BAB
:1038A00041E062E070E0CE0101960E94610B0E944F
:1038B000CC0B0E94A60C80E00E940F0B0E943D1BC7
:1038C0001B820E94DB0B892B49F1CE0103960E94DB
:1038D000C20B8B81853C11F50E94CC0B8823D1F063
:1038E0008FEF0E943C0B182F8FEF0E943C0B912F03
:1038F00089839A83860129813A81C8018C199D099F
:103900008217930738F48FEF0E943C0BF8018193E4
:103910008F01F1CFCE0103960E94C20B0E94A60C2C
:1039200089819A81009771F026E02E9DF0012F9DEC
:10393000F00D1124EB56F34D208131812283338326
:103940008483958386E08E9DF0018F9DF00D112478
:10395000EB56F34D848195812496CDBFDEBFDF9178
:10396000CF911F910F91FF90EF90DF90CF9008952E
:10397000CF92DF92EF92FF920F931F93CF93DF933B
:103980007C016B018A010E94FB1B0097F9F08017F4
:1039900091070CF48C0186E08E9DE0018F9DD00D87
:1039A0001124CB56D34D6A817B81A801C6010E94A8
:1039B0005E388A819B81800F911F8A839B838C81D3
:1039C0009D81801B910B8C839D83C801DF91CF91DA
:1039D0001F910F91FF90EF90DF90CF900895FC0121
:1039E000848590E00C94B81C0F931F93CF93DF93C2
:1039F0001F92CDB7DEB78C01DC01ED91FC91008404
:103A0000F185E02D0995892B91F0F801848541E03D
:103A100050E0BE016F5F7F4F90E00E94B81C89812B
:103A200090E00F90DF91CF911F910F9108958FEF4C
:103A30009FEFF7CFCF93DF93FC01C485D0E0CE0199
:103A40000E94FB1B892B81F086E08C9FF0018D9FEB
:103A5000F00D1124EB56F34D0280F381E02D8081AF
:103A600090E0DF91CF9108958FEF9FEFFACFFC01A7
:103A700084858F3F19F090E00C94FB1B90E080E070
:103A80000895EF92FF920F931F93CF93DF93CDB7DB
:103A9000DEB72A97CDBFDEBF7C018E010F5F1F4FBF
:103AA00087E0F80111928A95E9F780EE99E28A831E
:103AB0009B838CED99E28D839E8388ED99E28887C4
:103AC00099878091FE2A811102C00E94101A80E01D
:103AD0000E940F0B0E943D1B61E081E20E944A0B95
:103AE0008FEF8A8741E061E0CE010A960E94920B37
:103AF0000E94CC0B0E94CC0B0E94A60C80E00E947E
:103B00000F0B0E943D1BA80163E081E20E943D0C67
:103B10000E94A60C8091E0299091E129A091E229D0
:103B2000B091E329F70182839383A483B5832A9616
:103B3000CDBFDEBFDF91CF911F910F91FF90EF902E
:103B40000895CF93DF9300D0CDB7DEB78091FE2AE2
:103B5000811102C00E94101A80E00E940F0B0E9487
:103B60003D1B60E080E20E944A0B0E94A60C80E0B0
:103B70000E940F0B0E943D1B8FEF89831A82AE01BA
:103B80004E5F5F4FBE016F5F7F4F80E20E94F30B7D
:103B90000E94A60C89810F900F90DF91CF9108951C
:103BA0008F929F92AF92BF92CF92DF92EF92FF924D
:103BB0000F931F93CF93DF9300D0CDB7DEB705E906
:103BC00018E2F80101900020E9F7CF0186599842E8
:103BD0007C01EFE9F8E201900020E9F78F01005A3B
:103BE00018428091FE2A811102C00E94101A80E0C2
:103BF0000E940F0B0E943D1B62E081E10E944A0B74
:103C000040E0602F8FE998E20E94920B41E06E2D18
:103C100085E998E20E94920B11270A5F1F4F0E0D53
:103C2000111DC80183709927892B29F00E94CC0BA4
:103C30000F5F1F4FF6CF0E94A60C80E00E940F0B73
:103C40000E943D1B1A821982AE014F5F5F4FBE0179
:103C50006E5F7F4F81E10E94F30B892B11F48FEF90
:103C60008A830E94A60C8A8114E08F3F51F10E9442
:103C70006E076B017C0110E00E946E076C197D09D4
:103C80008E099F098090D12C9090D22CA090D32C9B
:103C9000B090D42C681579058A059B0590F4E091C5
:103CA000D52CF091D62C309709F0099564E670E098
:103CB00080E090E00E943E070E94A11D182F8330F3
:103CC000D8F2812F90E00F900F90DF91CF911F914C
:103CD0000F91FF90EF90DF90CF90BF90AF909F90AB
:103CE0008F900895CF93DF93CDB7DEB72797CDBFE1
:103CF000DEBF8F8319821A821B821C826A837B83B8
:103D00004D835E838091FE2A811102C00E94101AA9
:103D100080E00E940F0B0E943D1B61E08AE30E943D
:103D20004A0B41E061E0CE0107960E94920B0E948F
:103D3000CC0B0E94CC0B0E94A60C80E00E940F0BC3
:103D40000E943D1BAE014F5F5F4F62E08AE30E941D
:103D50003D0C0E94A60C2796CDBFDEBFDF91CF9110
:103D60000895CF93DF93CDB7DEB72697CDBFDEBFE3
:103D700019821A821B821C821D821E82AE014B5F39
:103D80005F4FBE016F5F7F4FFC0184850E94721EF2
:103D90008D8190E0982F88272E81820F911D269685
:103DA000CDBFDEBFDF91CF9108950F931F93CF93C7
:103DB000DF93CDB7DEB72697CDBFDEBF8C01FB0109
:103DC00019821A821B821C821D821E82AE014B5FE9
:103DD0005F4FBE016F5F7F4F84850E94721E82E934
:103DE00097EBF8018083918389819A81AB81BC81B3
:103DF00082839383A483B583C8012696CDBFDEBF9B
:103E0000DF91CF911F910F910895CF93DF9300D051
:103E1000CDB7DEB78091FE2A811102C00E94101A30
:103E200080E00E940F0B0E943D1B60E08FE30E9428
:103E30004A0B0E94A60C80E00E940F0B0E943D1BC3
:103E40008FEF89831A82AE014E5F5F4FBE016F5FB5
:103E50007F4F8FE30E94F30B0E94A60C89810F9085
:103E60000F90DF91CF910895CF92DF92EF92FF9262
:103E70000F93CF93DF93EC017B016A018C858F3F19
:103E800039F0E881F9810488F589E02DCE010995A2
:103E90000E94051F8C878F3F09F442C0F7010190F3
:103EA0000020E9F73197BF016E197F0904E0282F40
:103EB000A601C7010E94841B0E946E076B017C0152
:103EC000E881F9810688F789E02DCE0109958111F5
:103ED00012C00E946E076C197D098E099F0960311E
:103EE00077428105910538F461E070E080E090E070
:103EF0000E943E07E5CFE881F9810688F789E02D29
:103F0000CE01099521E090E0811101C020E0822FCF
:103F1000DF91CF910F91FF90EF90DF90CF900895B8
:103F200066E078EB89E49BE20E94E41480E090E094
:103F3000EFCFCF92DF92EF92FF920F93CF93DF9369
:103F4000EC017B016A018C858F3F39F0E881F981B2
:103F50000488F589E02DCE0109950E94051F8C8704
:103F60008F3F09F442C0F70101900020E9F7319733
:103F7000BF016E197F0902E0282FA601C7010E9428
:103F8000841B0E946E076B017C01E881F981068821
:103F9000F789E02DCE010995811112C00E946E07AC
:103FA0006C197D098E099F09603177428105910561
:103FB00038F461E070E080E090E00E943E07E5CFD9
:103FC000E881F9810688F789E02DCE01099521E085
:103FD00090E0811101C020E0822FDF91CF910F91FD
:103FE000FF90EF90DF90CF90089566E078EB89E442
:103FF0009BE20E94E41480E090E0EFCFCF92DF924A
:10400000EF92FF920F931F93CF93DF9300D000D0D6
:10401000CDB7DEB78C837B018A018091FE2A8111A6
:1040200002C00E94101A80E00E940F0B0E943D1BEC
:1040300062E084E40E944A0B40E061E070E0CE015F
:1040400004960E94610B41E0B801C7010E94610B18
:10405000075F1F4FC80183709927892B29F00E94A1
:10406000CC0B0F5F1F4FF6CF0E94A60C80E00E9482
:104070000F0B0E943D1B19821A821B820E94DB0BD0
:10408000892B31F1CE0103960E94C20B8B81843CB7
:10409000F9F40E94CC0B8823B9F08FEF0E943C0BFF
:1040A0009E012F5F3F4F69018901E82EF12CC80165
:1040B0008C199D098E159F053CF48FEF0E943C0BD7
:1040C000F80181938F01F3CFCE0103960E94C20BBA
:1040D0000E94A60C89819A812496CDBFDEBFDF9114
:1040E000CF911F910F91FF90EF90DF90CF900895A7
:1040F000CF92DF92EF92FF920F931F93CF93DF93B4
:10410000222379F06A017B018C01C5E0D0E0A60191
:10411000B701F80184850E94FE1F009721F42197C2
:10412000B1F790E080E0DF91CF911F910F91FF9068
:10413000EF90DF90CF900895CF93DF9300D01F9240
:10414000CDB7DEB78B838091FE2A811102C00E9419
:10415000101A80E00E940F0B0E943D1B61E08FE26D
:104160000E944A0B41E061E0CE0103960E94920B4F
:104170000E94CC0B0E94CC0B0E94A60C80E00E94F7
:104180000F0B0E943D1B19821A82AE014E5F5F4FDA
:10419000BE016F5F7F4F8FE20E94F30B0E94A60C5F
:1041A00089812396CDBFDEBFDF91CF9108950F9314
:1041B0001F93CF93DF93FC0124852F3F09F1EC017E
:1041C0000190F081E02D0084F185E02D0995892B87
:1041D00031F081E0DF91CF911F910F9108958C858F
:1041E0008F3F81F40C85F6E00F9F800111240B5660
:1041F000134DF80180819181009779F48FEF8C87BE
:1042000080E0E8CF0E949C20843060F39BEF980F01
:10421000933040F38A30E9F6E5CF0E94D537F801B4
:10422000128213821082118214821582E7CFCF93FB
:10423000DF9300D01F92CDB7DEB78B838091FE2A2B
:10424000811102C00E94101A80E00E940F0B0E9490
:104250003D1B61E08EE20E944A0B41E061E0CE012D
:1042600003960E94920B0E94CC0B0E94CC0B0E94E2
:10427000A60C80E00E940F0B0E943D1B19821A823F
:10428000AE014E5F5F4FBE016F5F7F4F8EE20E94B7
:10429000F30B0E94A60C2396CDBFDEBFDF91CF911A
:1042A00008950F931F93CF93DF93FC0184858F3F75
:1042B00069F18F010E941721C2E3D0E0F8018485E3
:1042C0008F3F69F00E949C20882349F0219739F0A4
:1042D00064E670E080E090E00E943E07EFCFF801D6
:1042E000C485F6E0CF9FE0011124CB56D34D8881E1
:1042F0009981009741F00E94D5371A821B8218825B
:1043000019821C821D828FEFF8018487DF91CF9183
:104310001F910F910895FF920F931F93CF93DF93F7
:10432000CDB7DEB72897CDBFDEBF6B837C838D838F
:104330009E83142FF52E2F8308878091FE2A8111EA
:1043400002C00E94101A80E00E940F0B0E943D1BC9
:1043500064E08DE20E944A0B40E064E0CE010396E7
:104360000E94920B82E00E943C0B8F2D0E943C0B1E
:10437000812F0E943C0B40E061E0CE0107960E9435
:10438000920B41E061E0CE0108960E94920B0E94E0
:10439000A60C80E00E940F0B0E943D1B19821A821E
:1043A000AE014E5F5F4FBE016F5F7F4F8DE20E9497
:1043B000F30B0E94A60C2896CDBFDEBFDF91CF91F4
:1043C0001F910F91FF900895AF92BF92CF92DF920D
:1043D000EF92FF920F93CF93DF93EC017B015A0191
:1043E0008C858F3F39F0E881F9810488F589E02DCB
:1043F000CE0109950E94051F282F8C878F3F09F455
:104400003FC0F701628173818481958104E0A50139
:104410000E948B210E946E076B017C01E881F9816B
:104420000688F789E02DCE010995811112C00E94FE
:104430006E076C197D098E099F09603177428105ED
:10444000910538F461E070E080E090E00E943E0762
:10445000E5CFE881F9810688F789E02DCE0109953D
:1044600021E090E0811101C020E0822FDF91CF9107
:104470000F91FF90EF90DF90CF90BF90AF90089595
:1044800066E078EB89E49BE20E94E41480E090E02F
:10449000EDCFAF92BF92CF92DF92EF92FF920F9348
:1044A000CF93DF93EC017B015A018C858F3F39F06C
:1044B000E881F9810488F589E02DCE0109950E94F3
:1044C000051F282F8C878F3F09F43FC0F7016281B9
:1044D00073818481958102E0A5010E948B210E9455
:1044E0006E076B017C01E881F9810688F789E02D70
:1044F000CE010995811112C00E946E076C197D09C9
:104500008E099F09603177428105910538F461E099
:1045100070E080E090E00E943E07E5CFE881F981FD
:104520000688F789E02DCE01099521E090E0811100
:1045300001C020E0822FDF91CF910F91FF90EF908B
:10454000DF90CF90BF90AF90089566E078EB89E45C
:104550009BE20E94E41480E090E0EDCFAF92BF9226
:10456000CF92DF92EF92FF920F93CF93DF93EC0104
:104570007B015A018C858F3F39F0E881F9810488ED
:10458000F589E02DCE0109950E94051F282F8C8703
:104590008F3F09F43FC0F701628173818481958167
:1045A00000E0A5010E948B210E946E076B017C0137
:1045B000E881F9810688F789E02DCE0109958111FE
:1045C00012C00E946E076C197D098E099F09603127
:1045D00077428105910538F461E070E080E090E079
:1045E0000E943E07E5CFE881F9810688F789E02D32
:1045F000CE01099521E090E0811101C020E0822FD9
:10460000DF91CF910F91FF90EF90DF90CF90BF900F
:10461000AF90089566E078EB89E49BE20E94E41491
:1046200080E090E0EDCFCF92DF92EF92FF920F9378
:104630001F93CF93DF9300D01F92CDB7DEB76C01ED
:104640008B017A01DC011C968C918F3FA1F481E0F3
:1046500090E0F6018283938310E000E0C801239686
:10466000CDBFDEBFDF91CF911F910F91FF90EF90F3
:10467000DF90CF9008954115510549F30E94FE1F28
:10468000009709F06AC0D6011F968C911F9781117F
:104690000CC0F60184850E94172181E090E0D601CC
:1046A00012968D939C931397D7CFED91FC9102A016
:1046B000F3A1E02D21E0A701B801C60109958C0105
:1046C000892B39F3F60184858B831A821982F12CA8
:1046D000E12C8091FE2A811102C00E94101A80E014
:1046E0000E940F0B0E943D1B61E08AE20E944A0B70
:1046F00041E061E0CE0103960E94920B0E94CC0B38
:104700000E94CC0B0E94A60C80E00E940F0B0E941E
:104710003D1BAE014F5F5F4FBE016E5F7F4F8AE270
:104720000E94F30B0E94A60C8A81811118C0FFEF32
:10473000EF1AFF0A64E670E080E090E00E943E0716
:104740008A81811104C089E1E816F10410F2A9E11F
:10475000EA16F10409F47BCF81CF8C01B3CFF12CA1
:10476000E12CEECF8F929F92AF92BF92CF92DF92C9
:10477000EF92FF920F931F93CF93DF93CDB7DEB7E6
:104780002B97CDBFDEBF7C015B016A018091FE2AC1
:10479000811102C00E94101A80E00E940F0B0E943B
:1047A0003D1B61E084E30E944A0BF501019000206B
:1047B000E9F73197BF016A197B0941E0C5010E9401
:1047C000920BD5010D900020E9F78D010A191B0904
:1047D0000C5F1F4FC80183709927892B29F00E9415
:1047E000CC0B0F5F1F4FF6CF0E94A60C80E00E94FB
:1047F0000F0B0E943D1B1F821982AE014F5F5F4F5E
:10480000BE01695F7F4F84E30E94F30B182F0E9463
:10481000A60C112319F08F81813019F090E080E00F
:1048200056C08FEF8B838C838D838E838091FE2A7D
:10483000811102C00E94101A80E00E940F0B0E949A
:104840003D1B60E085E30E944A0B0E94A60C80E0BD
:104850000E940F0B0E943D1B1B86AE01455F5F4F00
:10486000BE01695F7F4F85E30E94F30B8C01812CB1
:10487000912C5401892B91F08F809884A984BA845B
:1048800091E080E04B815C816D817E814815590506
:104890006A057B0509F490E0092F182F0E94A60CE9
:1048A000012B09F4BBCFD701ED91FC910684F7856C
:1048B000E02D82E997EB89839A838B829C82AD827B
:1048C000BE82A601BE016F5F7F4FC70109952B967F
:1048D000CDBFDEBFDF91CF911F910F91FF90EF9081
:1048E000DF90CF90BF90AF909F908F9008951F92D0
:1048F0000F920FB60F9211242F933F934F935F9314
:104900006F937F938F939F93AF93BF934091322A7E
:104910005091332A6091342A7091352A8091302A3F
:104920009091312A20912E2A30912F2A420F531F25
:10493000611D711D20912C2A30912D2A820F931F09
:10494000883E23E0920730F0885E93404F5F5F4FD0
:104950006F4F7F4F8093302A9093312A4093322AB1
:104960005093332A6093342A7093352A80913A2ADF
:1049700090913B2AA0913C2AB0913D2A0196A11D1D
:10498000B11D80933A2A90933B2AA0933C2AB0937E
:104990003D2A81E08093B60ABF91AF919F918F919C
:1049A0007F916F915F914F913F912F910F900FBE2B
:1049B0000F901F9018951F920F920FB60F9211240F
:1049C0002F933F934F935F936F937F938F939F9317
:1049D000AF93BF93EF93FF9385E00E94AE07FF91E3
:1049E000EF91BF91AF919F918F917F916F915F9167
:1049F0004F913F912F910F900FBE0F901F901895E0
:104A00001F920F920FB60F9211242F933F934F9343
:104A10005F936F937F938F939F93AF93BF93EF9326
:104A2000FF9384E00E94AE07FF91EF91BF91AF9199
:104A30009F918F917F916F915F914F913F912F91B6
:104A40000F900FBE0F901F9018951F920F920FB6E8
:104A50000F9211242F933F934F935F936F937F9304
:104A60008F939F93AF93BF93EF93FF9383E00E9445
:104A7000AE07FF91EF91BF91AF919F918F917F9181
:104A80006F915F914F913F912F910F900FBE0F90BB
:104A90001F9018951F920F920FB60F9211242F930B
:104AA0003F934F935F936F937F938F939F93AF93B6
:104AB000BF93EF93FF9382E00E94AE07FF91EF91C7
:104AC000BF91AF919F918F917F916F915F914F9126
:104AD0003F912F910F900FBE0F901F9018951F922E
:104AE0000F920FB60F9211242F933F934F935F9322
:104AF0006F937F938F939F93AF93BF93EF93FF93A6
:104B000081E00E94AE07FF91EF91BF91AF919F911D
:104B10008F917F916F915F914F913F912F910F9066
:104B20000FBE0F901F9018951F920F920FB60F9205
:104B300011242F933F934F935F936F937F938F93A2
:104B40009F93AF93BF93EF93FF9380E00E94AE07D4
:104B5000FF91EF91BF91AF919F918F917F916F9155
:104B60005F914F913F912F910F900FBE0F901F902B
:104B700018951F920F920FB60F9211242F933F9307
:104B80004F935F936F937F938F939F93AF93BF9355
:104B9000EF93FF9389E49BE20E940D05FF91EF9153
:104BA000BF91AF919F918F917F916F915F914F9145
:104BB0003F912F910F900FBE0F901F9018951F924D
:104BC0000F920FB60F9211242F933F934F935F9341
:104BD0006F937F938F939F93AF93BF93EF93FF93C5
:104BE000E091552BF091562B818181FD2FC0608182
:104BF00080915B2B8F5F8F7390915C2B891741F0B5
:104C0000E0915B2BF0E0E75BF44D618F80935B2BD1
:104C10008091E22B9091E32B009739F0DC01ED912C
:104C2000FC910190F081E02D0995FF91EF91BF91EA
:104C3000AF919F918F917F916F915F914F913F9134
:104C40002F910F900FBE0F901F9018958081EDCF80
:104C50001F920F920FB60F9211242F933F934F93F1
:104C60005F936F937F938F939F93AF93BF93CF93F4
:104C7000EF93FF93C091AB08C2FF0AC01092CA29FC
:104C80001092C9291092C82984E00E94CE0E14C047
:104C9000C6FF2FC08091C729813051F48091CA2965
:104CA000E091C529F091C62990E009951092C72995
:104CB000C0FF14C00E94DE0EFF91EF91CF91BF9113
:104CC000AF919F918F917F916F915F914F913F91A4
:104CD0002F910F900FBE0F901F90189580E4809336
:104CE000AB0881E00E94CE0E8091AB0885FFE4CF37
:104CF000E1CFC7FF5CC0C3FF08C01092CA29109261
:104D0000C9291092C82983E0C0CF8091A908806684
:104D10008093A9088091AB0881FF2CC08091C9299C
:104D2000882349F08091AB0884FF05C082E080931E
:104D3000AA0881E0AACF9091C9298091C829981723
:104D4000A8F4E091C9298091C0299091C129E80F68
:104D5000F92FF11D80818093AD088091C9298F5F63
:104D60008093C92983E08093AA08A6CF82E080932C
:104D7000AA088BCF9091CA298091C429981790F4E2
:104D80008091AD08E091CA292091C2293091C329B0
:104D9000E20FF32FF11D80838091CA298F5F8093EA
:104DA000CA29E0CF86E08093AA0882E06ECF85E032
:104DB0006CCF1F920F920FB60F9211242F933F9337
:104DC0008F939F93EF93FF938091A508982F9C70EA
:104DD000E1F08091A50894E082FF93E09093D529BB
:104DE0008093A50881E090E08093CB299093CC2913
:104DF0001092D629FF91EF919F918F913F912F9122
:104E00000F900FBE0F901F90189586FF4EC02091F7
:104E1000D2299091D1298091A50884FF15C0809155
:104E2000CE29882379F083E08093A40885E08093DD
:104E3000D5291092D62981E090E08093CB299093D8
:104E4000CC29D8CF81E0F0CF8091D029821790F47F
:104E5000E091D0298091D3299091D429E80FF92F9E
:104E6000F11D80818093A8088091D0298F5F809365
:104E7000D029C0CF8091CF29891760F484E090E0D9
:104E80008093CB299093CC298091CD298160809308
:104E9000A708B0CF8091CE29882329F083E08093A2
:104EA000A40881E0C4CF81E0FACF87FF40C0909191
:104EB000CF298091D1299817D8F48091A808E09142
:104EC000CF292091BE293091BF29E20FF32FF11D88
:104ED00080838091CF298F5F8093CF299091D129B2
:104EE0008091CF298917D8F482E08093A40882CFDB
:104EF0008091CE29882389F087E08093A40882E0FE
:104F00008093D5291092D62981E090E08093CB2917
:104F10009093CC291092D1296DCF85E0EECF80916E
:104F2000CE29882311F087E0BACF85E0B8CF86E09C
:104F30007ECF1F93CF93DF93EC01162F70E060E0DC
:104F4000812F0E949206612F70E0FB01E958F9441D
:104F50008081888360567944FB0180818630B8F473
:104F6000F0E28F9FC00111249C5F089689839A8389
:104F70001B861D861C861A86198618861F821E822D
:104F80001D821C821B82DF91CF911F91089590E0BA
:104F900080E0EBCF0F931F93CF93DF93CDB7DEB7B6
:104FA0002897CDBFDEBF80E099E0ADE3B0E080930D
:104FB000412B9093422BA093432BB093442B109200
:104FC000452B1092462B81E090E08093472B9093E5
:104FD000482B86EF96EB8093FF2A9093002B10923C
:104FE000062B81E08093052B91E29093012B92E2B6
:104FF0009093032B90E29093022B96E19093042BD5
:1050000010924B2B10924C2B48EE53E060E070E076
:1050100040934D2B50934E2B60934F2B7093502BFE
:1050200024E137EB2093492B30934A2B20E638E0DC
:105030002093552B3093562B9AE19093572B9BE15D
:105040009093582B90E49093592B10925B2B1092D5
:105050005C2B10925D2B10925E2B96E290935F2B4F
:105060001092602B1092612B1092E22B1092E32B86
:105070001092E62B1092E72B2EE237EB2093E42BD5
:105080003093E52BE5E9FCE29CE3DF011D929A9564
:10509000E9F700E513EC20E030E00093D12C109309
:1050A000D22C2093D32C3093D42C1092D52C109248
:1050B000D62C1092D92C1092DA2C4093DB2C5093E2
:1050C000DC2C6093DD2C7093DE2C2CE337EB2093EB
:1050D000D72C3093D82C1092B12D1092B22D28E9F4
:1050E00037EB2093AF2D3093B02D1092B32D10924B
:1050F000B42D94E0998395E09A8396E09B8390E1A8
:105100009C839BE09D839CE09E839DE09F839EE02B
:10511000988797E29093C12D8093C32D9091B82DDD
:105120006091BC2D5091BB2D4091BA2D3091B92D7D
:105130007091BD2D1091BE2D0091BF2DDE011196F5
:1051400021E080E0ED91E450ED3008F0B2C0F0E0F5
:10515000E455F74D0C9455365B29B9284D2959294A
:105160005929592959295529532951294F2959294B
:105170005729182F8F5F883029F70093BF2D109380
:10518000BE2D7093BD2D6093BC2D5093BB2D4093CD
:10519000BA2D3093B92D9093B82D2093C02D81E076
:1051A00001C0880F9A95EAF78093B72D62E087E7F0
:1051B0009DE20E94992763E085E89DE20E9499277D
:1051C00064E083E99DE20E94992765E081EA9DE21F
:1051D0000E9499271092302D1092312D10921C2D83
:1051E0001092472D1092482D1092332D10925E2D63
:1051F00010925F2D10924A2D1092752D1092762DDF
:105200001092612D82E997EB8093152D9093162DC6
:1052100020EC2093172D28EA2093182D21E02093CD
:10522000192D39E230931A2D1092072D1092082D66
:1052300048EE53E060E070E04093092D50930A2D52
:1052400060930B2D70930C2D44E657EB4093052D86
:105250005093062D3FEF3093112D2093142D109273
:10526000E92C1092EA2C25E03DE22093ED2C3093BE
:10527000EE2C8093E32C9093E42C1092E52C10926A
:10528000E62C1092E72C1092E82C2896CDBFDEBFBA
:10529000DF91CF911F910F910895782F6BCF682FD9
:1052A00069CF582F67CF482F65CF382F63CF982FFE
:1052B00061CF20E05FCF082F5DCFCF93DF93CDB7D5
:1052C000DEB7C35CD109CDBFDEBF88ED90E084BFFF
:1052D0009093610080E094E2A4EFB0E08093032813
:1052E00090930428A0930528B09306288091020685
:1052F000866080930206809100068160809300069C
:10530000809102068F7C809302068091A0008F78A6
:105310008093A00080910206806180930206109223
:10532000E20581E08093E40583E08093010A8FEF3A
:1053300090E08093260A9093270A80E890E080937B
:10534000380A9093390A80933A0A90933B0A8093E3
:105350003C0A90933D0A8BE08093000A8091E5051A
:1053600081608093E5058091E50582608093E50585
:10537000E0E8FAE037E02FEF90E885E0318324871A
:10538000958780837096E03C4AE0F407B9F780E0A7
:1053900094E08093382A9093392A8091382A90910A
:1053A000392A2FEF30E0B9010E94EC356093362A9C
:1053B0007093372A8091382A9091392AE8EEF3E0E9
:1053C000BF010E94EC3560932E2A70932F2A8091A2
:1053D000382A9091392ABF010E94EC3580932C2AFB
:1053E00090932D2A2093BC0A3093BD0A8091B50A70
:1053F00081608093B50A84E08093B00A8091B00AFE
:1054000081608093B00A789461E070E08CE10E9442
:10541000C50561E070E08CE10E94250661E070E066
:105420008DE10E94C50561E070E08DE10E942506D6
:1054300061E070E083E20E94C50561E070E083E214
:105440000E94250661E070E08EE10E94C50561E0E2
:1054500070E08EE10E94250640E051EE60E070E0D1
:1054600089E49BE20E94AA118091F8299091F92980
:10547000009711F00E94D53786E090E00E943937FE
:105480008C0188E6D8018C9387ED9CE211968D9370
:105490009C93129713961C92139780E290E01496B7
:1054A0008D939C9315970093F8291093F92987ED14
:1054B0009CE20E947A1181E0F8018383C8010E9476
:1054C000DB021EE0CD53DF4F1883C35CD04021E0E8
:1054D00041E050E0BE016D537F4F8091F8299091DB
:1054E000F9290E94B31141E050E0CE0101966C0110
:1054F000BC018091F8299091F9290E945C02898170
:105500001983837E8A8321E042E050E0B6018091D6
:10551000F8299091F9290E94B31162E070E088E0C7
:105520000E94C5050E94C30281E090E080932A2A70
:1055300090932B2A87ED9CE20E947A1160EA76E82C
:1055400081E090E00E94010F8091C02D882309F432
:1055500081C06091C12D87ED9CE20E942E1087EDE5
:105560009CE20E940710182F811174C060E08FEA3E
:105570009DE20E94351084E18093B52D84E08093F4
:10558000B62D1092C22D64EF71E080E090E00E9491
:105590003E0724E040E360E28FEA9DE20E9454105F
:1055A00065E070E080E090E00E943E0724E040E388
:1055B00060E28FEA9DE20E9454108BE193E0019734
:1055C000F1F724E040E360E28FEA9DE20E9454108C
:1055D0008BE891E00197F1F724E040E260E28FEA86
:1055E0009DE20E9454108091B62D823008F018E0A0
:1055F0009091C22D943021F41460813009F014E0B0
:10560000412F406228E060E28FEA9DE20E94541040
:105610001092B32D28E048E060E28FEA9DE20E94FC
:1056200054100E94E11082E08093B42D28E046E0FF
:1056300060E28FEA9DE20E9454104091B32D842FC6
:1056400084608093B32D4C6028E060E28FEA9DE295
:105650000E94541060E080E00E94B6100E94E110A9
:105660006AE178EB89E49BE20E94FB1484E090E01D
:105670000E94741362E378EB89E49BE20E94E414D5
:1056800007E71DE2FBE1EF2EFDE2FF2EA9E09A2ED7
:10569000BB24B394BAE08B2E8FE3782ED7011996F2
:1056A0000D931C931A9717961C92179718961C9295
:1056B00018971C9213969C9213971496BC92149769
:1056C0001596BC9215971696BC92F801138615860E
:1056D000148612861186108617821682158214820D
:1056E0001382B601D70119968D919C910E94F511F4
:1056F000882309F45CC067E0C6010E94D20C98853B
:105700008913EFCFF70187818F5F87838981883283
:1057100031F008F043C0803111F0823211F7D70127
:1057200018968C9118978F5F18968C9318978C9178
:10573000811123C019968D919C910E949A0DB601FA
:10574000F701818592850E947B0D40E064EBD701D3
:1057500019968D919C910E94450DF7018185928546
:105760000E94E90CA82ED70119968D919C910E9458
:105770009A0DA11002C0F701B08289818031A9F091
:10578000B601C7010E944A0ED70113969C91139748
:10579000981708F0A6CF13968C93A3CF8B3309F4F8
:1057A000BECF823409F09DCFBACF8CE0EDCF40E080
:1057B000BE016B547F4FC7010E947512882309F404
:1057C000B8C0CB54DF4F8881C55BD040803109F42D
:1057D0006BC0A601BE016B547F4FC7010E94D90D5B
:1057E000882309F461C08D818F3309F45DC07D8207
:1057F000F701818592850E949A0DBE016B547F4FFF
:10580000D70119968D919C910E947B0D40E06EE42A
:10581000F701818592850E94450D40E06B81D7019B
:1058200019968D919C910E94450D40E06C81F70185
:10583000818592850E94450DCB54DF4F8881C55BE1
:10584000D040803141F040E06D81D70119968D91B3
:105850009C910E94450DF701818592852681222326
:1058600009F10E949A0D8823F9F0BE016B547F4F15
:10587000D70119968D919C910E947B0DF701408173
:1058800068E4818592850E94450DD7018C91811134
:1058900031C064E170E080E090E00E943E07F701D3
:1058A000818592850E949A0DD70113968C92139749
:1058B00017968C918230E8F1A12CF7018781A81608
:1058C000C0F583818C30A9F14A2DB601C7010E9431
:1058D00075128981803159F1B601C7010E944A0EC3
:1058E000D70113969C911397981710F413968C93E5
:1058F000A394E3CFF7018181882329F070E060E071
:1059000082810E948D0664E170E080E090E00E9458
:105910003E07D70111968C911197882309F4BFCFC8
:1059200061E070E012968C910E948D06B8CF8CE0F9
:10593000D7CF025F1F4FB7E1EB0EF11CE7E7EE1682
:10594000EDE2FE0609F0AACE62E070E086E00E9479
:10595000C50562E070E087E00E94C5058091E429FA
:105960009091E529039769F00E94D01D8093E42966
:105970009093E52968EB7BE080E090E00E943E0791
:10598000EDCF02E917EBC354DF4F08831983CD5BDA
:10599000D040C154DF4F188219821A821B82CF5B1C
:1059A000D040CE0183549F4F0E94411D6FEA7DE29B
:1059B000CE0183549F4F0E94A81309831A838091BC
:1059C000172D9091182DA091192DB0911A2D8B8320
:1059D0009C83AD83BE83C6010E947B17882309F494
:1059E00091C26BE478EB89E49BE20E94FB1464E6CD
:1059F00070E080E090E00E943E0768EE73E080E097
:105A000090E00E943E078FE29DEF8093282A9093BA
:105A1000292A80912A2A90912B2A892B09F099C44E
:105A20008091282A9091292A01968093282A909380
:105A3000292A2091262A3091272A2F5F3F4F209331
:105A4000262A3093272A893791050CF462C20E94D6
:105A5000E11060E080E00E94B6106DE678EB8FEA1E
:105A60009DE20E94FB146FE17AE28FEA9DE20E94C0
:105A7000FB1460E080E10E94B61069E778EB8FEAE2
:105A80009DE20E94FB146CE17AE28FEA9DE20E94A3
:105A9000FB1461E080E00E94B6106CE778EB8FEABF
:105AA0009DE20E94FB1465E17AE28FEA9DE20E948A
:105AB000FB1461E080E10E94B61067E878EB8FEAA2
:105AC0009DE20E94FB1462E17AE28FEA9DE20E946D
:105AD000FB1462E080E00E94B6106AE878EB8FEA7F
:105AE0009DE20E94FB146BE07AE28FEA9DE20E9445
:105AF000FB1463E080E00E94B61064E978EB8FEA63
:105B00009DE20E94FB1464E07AE28FEA9DE20E942B
:105B1000FB141092282A1092292A8091262A90910B
:105B2000272A813D92400CF40EC480919304887F13
:105B3000809393041092E42A1092E52A82E997EB6D
:105B400089839A831B821C821D821E82C6010E9449
:105B5000411D8B819C81AD81BE818093E52C90930A
:105B6000E62CA093E72CB093E82C6DEA78EB89E45F
:105B70009BE20E94FB1469E47BE283EE9CE20E94BC
:105B8000A81389E49BE20E94C4140BE11DE2D80132
:105B900019968D919C910E949A0D40E06CECF80151
:105BA000818592850E94450DD8014C9164E4199637
:105BB0008D919C910E94450DF8018481882309F103
:105BC000E381D80115968C911597882309F481C239
:105BD0008C9181117EC20E946E074B015C01F8011D
:105BE000818592850E94E90C813059F00E946E07F0
:105BF000681979098A099B096E3E724081059105F1
:105C000070F3095E1F4FE016F10609F0C0CF68EE91
:105C100073E080E090E00E943E078BE19DE20E94ED
:105C2000B1124B015C018092F4299092F529A09267
:105C3000F629B092F72982E39DE20E94B1126093A7
:105C4000F0297093F1298093F2299093F32989E444
:105C50009DE20E94B1126093EC297093ED2980932C
:105C6000EE299093EF2980E69DE20E94B1126093A5
:105C7000E8297093E9298093EA299093EB290FE1B1
:105C80001AE221E04AEFC501B4010E941F3260917F
:105C9000F0297091F1298091F2299091F32905E181
:105CA0001AE221E04AEF0E941F326091EC297091C4
:105CB000ED298091EE299091EF290BE01AE221E085
:105CC0004AEF0E941F326091E8297091E929809182
:105CD000EA299091EB2904E01AE221E04AEF0E94C0
